{
  "contractName": "ProductVerification",
  "abi": [
    {
      "inputs": [],
      "stateMutability": "nonpayable",
      "type": "constructor"
    },
    {
      "anonymous": false,
      "inputs": [
        {
          "indexed": false,
          "internalType": "string",
          "name": "productId",
          "type": "string"
        },
        {
          "indexed": false,
          "internalType": "address",
          "name": "reporter",
          "type": "address"
        }
      ],
      "name": "CounterfeitReported",
      "type": "event"
    },
    {
      "anonymous": false,
      "inputs": [
        {
          "indexed": false,
          "internalType": "string",
          "name": "productId",
          "type": "string"
        },
        {
          "indexed": false,
          "internalType": "address",
          "name": "from",
          "type": "address"
        },
        {
          "indexed": false,
          "internalType": "address",
          "name": "to",
          "type": "address"
        }
      ],
      "name": "OwnershipTransferred",
      "type": "event"
    },
    {
      "anonymous": false,
      "inputs": [
        {
          "indexed": false,
          "internalType": "string",
          "name": "productId",
          "type": "string"
        },
        {
          "indexed": false,
          "internalType": "address",
          "name": "manufacturer",
          "type": "address"
        },
        {
          "indexed": false,
          "internalType": "string",
          "name": "manufacturerName",
          "type": "string"
        }
      ],
      "name": "ProductRegistered",
      "type": "event"
    },
    {
      "anonymous": false,
      "inputs": [
        {
          "indexed": false,
          "internalType": "string",
          "name": "productId",
          "type": "string"
        },
        {
          "indexed": false,
          "internalType": "address",
          "name": "verifier",
          "type": "address"
        },
        {
          "indexed": false,
          "internalType": "bool",
          "name": "authentic",
          "type": "bool"
        }
      ],
      "name": "ProductVerified",
      "type": "event"
    },
    {
      "anonymous": false,
      "inputs": [
        {
          "indexed": true,
          "internalType": "bytes32",
          "name": "role",
          "type": "bytes32"
        },
        {
          "indexed": true,
          "internalType": "bytes32",
          "name": "previousAdminRole",
          "type": "bytes32"
        },
        {
          "indexed": true,
          "internalType": "bytes32",
          "name": "newAdminRole",
          "type": "bytes32"
        }
      ],
      "name": "RoleAdminChanged",
      "type": "event"
    },
    {
      "anonymous": false,
      "inputs": [
        {
          "indexed": true,
          "internalType": "bytes32",
          "name": "role",
          "type": "bytes32"
        },
        {
          "indexed": true,
          "internalType": "address",
          "name": "account",
          "type": "address"
        },
        {
          "indexed": true,
          "internalType": "address",
          "name": "sender",
          "type": "address"
        }
      ],
      "name": "RoleGranted",
      "type": "event"
    },
    {
      "anonymous": false,
      "inputs": [
        {
          "indexed": true,
          "internalType": "bytes32",
          "name": "role",
          "type": "bytes32"
        },
        {
          "indexed": true,
          "internalType": "address",
          "name": "account",
          "type": "address"
        },
        {
          "indexed": true,
          "internalType": "address",
          "name": "sender",
          "type": "address"
        }
      ],
      "name": "RoleRevoked",
      "type": "event"
    },
    {
      "anonymous": false,
      "inputs": [
        {
          "indexed": false,
          "internalType": "address",
          "name": "seller",
          "type": "address"
        }
      ],
      "name": "SellerRegistered",
      "type": "event"
    },
    {
      "inputs": [],
      "name": "ADMIN_ROLE",
      "outputs": [
        {
          "internalType": "bytes32",
          "name": "",
          "type": "bytes32"
        }
      ],
      "stateMutability": "view",
      "type": "function"
    },
    {
      "inputs": [],
      "name": "DEFAULT_ADMIN_ROLE",
      "outputs": [
        {
          "internalType": "bytes32",
          "name": "",
          "type": "bytes32"
        }
      ],
      "stateMutability": "view",
      "type": "function"
    },
    {
      "inputs": [],
      "name": "MANUFACTURER_ROLE",
      "outputs": [
        {
          "internalType": "bytes32",
          "name": "",
          "type": "bytes32"
        }
      ],
      "stateMutability": "view",
      "type": "function"
    },
    {
      "inputs": [],
      "name": "SELLER_ROLE",
      "outputs": [
        {
          "internalType": "bytes32",
          "name": "",
          "type": "bytes32"
        }
      ],
      "stateMutability": "view",
      "type": "function"
    },
    {
      "inputs": [
        {
          "internalType": "bytes32",
          "name": "role",
          "type": "bytes32"
        }
      ],
      "name": "getRoleAdmin",
      "outputs": [
        {
          "internalType": "bytes32",
          "name": "",
          "type": "bytes32"
        }
      ],
      "stateMutability": "view",
      "type": "function"
    },
    {
      "inputs": [
        {
          "internalType": "bytes32",
          "name": "role",
          "type": "bytes32"
        },
        {
          "internalType": "address",
          "name": "account",
          "type": "address"
        }
      ],
      "name": "grantRole",
      "outputs": [],
      "stateMutability": "nonpayable",
      "type": "function"
    },
    {
      "inputs": [
        {
          "internalType": "bytes32",
          "name": "role",
          "type": "bytes32"
        },
        {
          "internalType": "address",
          "name": "account",
          "type": "address"
        }
      ],
      "name": "hasRole",
      "outputs": [
        {
          "internalType": "bool",
          "name": "",
          "type": "bool"
        }
      ],
      "stateMutability": "view",
      "type": "function"
    },
    {
      "inputs": [
        {
          "internalType": "bytes32",
          "name": "role",
          "type": "bytes32"
        },
        {
          "internalType": "address",
          "name": "account",
          "type": "address"
        }
      ],
      "name": "renounceRole",
      "outputs": [],
      "stateMutability": "nonpayable",
      "type": "function"
    },
    {
      "inputs": [
        {
          "internalType": "bytes32",
          "name": "role",
          "type": "bytes32"
        },
        {
          "internalType": "address",
          "name": "account",
          "type": "address"
        }
      ],
      "name": "revokeRole",
      "outputs": [],
      "stateMutability": "nonpayable",
      "type": "function"
    },
    {
      "inputs": [
        {
          "internalType": "bytes4",
          "name": "interfaceId",
          "type": "bytes4"
        }
      ],
      "name": "supportsInterface",
      "outputs": [
        {
          "internalType": "bool",
          "name": "",
          "type": "bool"
        }
      ],
      "stateMutability": "view",
      "type": "function"
    },
    {
      "inputs": [
        {
          "internalType": "string",
          "name": "productId",
          "type": "string"
        },
        {
          "internalType": "string",
          "name": "manufacturerName",
          "type": "string"
        },
        {
          "internalType": "string",
          "name": "productDetails",
          "type": "string"
        },
        {
          "internalType": "string",
          "name": "manufacturingLocation",
          "type": "string"
        }
      ],
      "name": "registerProduct",
      "outputs": [
        {
          "internalType": "bool",
          "name": "",
          "type": "bool"
        }
      ],
      "stateMutability": "nonpayable",
      "type": "function"
    },
    {
      "inputs": [
        {
          "internalType": "address",
          "name": "seller",
          "type": "address"
        }
      ],
      "name": "registerSeller",
      "outputs": [
        {
          "internalType": "bool",
          "name": "",
          "type": "bool"
        }
      ],
      "stateMutability": "nonpayable",
      "type": "function"
    },
    {
      "inputs": [
        {
          "internalType": "string",
          "name": "productId",
          "type": "string"
        },
        {
          "internalType": "address",
          "name": "newOwner",
          "type": "address"
        },
        {
          "internalType": "string",
          "name": "transferConditions",
          "type": "string"
        }
      ],
      "name": "transferOwnership",
      "outputs": [
        {
          "internalType": "bool",
          "name": "",
          "type": "bool"
        }
      ],
      "stateMutability": "nonpayable",
      "type": "function"
    },
    {
      "inputs": [
        {
          "internalType": "string",
          "name": "productId",
          "type": "string"
        },
        {
          "internalType": "string",
          "name": "location",
          "type": "string"
        }
      ],
      "name": "verifyProduct",
      "outputs": [
        {
          "internalType": "bool",
          "name": "",
          "type": "bool"
        }
      ],
      "stateMutability": "nonpayable",
      "type": "function"
    },
    {
      "inputs": [
        {
          "internalType": "string",
          "name": "productId",
          "type": "string"
        },
        {
          "internalType": "string",
          "name": "evidenceHash",
          "type": "string"
        },
        {
          "internalType": "string",
          "name": "description",
          "type": "string"
        },
        {
          "internalType": "string",
          "name": "location",
          "type": "string"
        }
      ],
      "name": "reportCounterfeit",
      "outputs": [
        {
          "internalType": "bool",
          "name": "",
          "type": "bool"
        }
      ],
      "stateMutability": "nonpayable",
      "type": "function"
    },
    {
      "inputs": [
        {
          "internalType": "string",
          "name": "productId",
          "type": "string"
        }
      ],
      "name": "getProductDetails",
      "outputs": [
        {
          "internalType": "string",
          "name": "",
          "type": "string"
        },
        {
          "internalType": "address",
          "name": "",
          "type": "address"
        },
        {
          "internalType": "address",
          "name": "",
          "type": "address"
        },
        {
          "internalType": "uint256",
          "name": "",
          "type": "uint256"
        },
        {
          "internalType": "string",
          "name": "",
          "type": "string"
        },
        {
          "internalType": "string",
          "name": "",
          "type": "string"
        },
        {
          "internalType": "string",
          "name": "",
          "type": "string"
        },
        {
          "internalType": "enum ProductVerification.ProductStatus",
          "name": "",
          "type": "uint8"
        },
        {
          "internalType": "bool",
          "name": "",
          "type": "bool"
        }
      ],
      "stateMutability": "view",
      "type": "function"
    },
    {
      "inputs": [
        {
          "internalType": "string",
          "name": "productId",
          "type": "string"
        }
      ],
      "name": "getTransferHistory",
      "outputs": [
        {
          "components": [
            {
              "internalType": "address",
              "name": "from",
              "type": "address"
            },
            {
              "internalType": "address",
              "name": "to",
              "type": "address"
            },
            {
              "internalType": "uint256",
              "name": "timestamp",
              "type": "uint256"
            },
            {
              "internalType": "string",
              "name": "transferConditions",
              "type": "string"
            }
          ],
          "internalType": "struct ProductVerification.Transfer[]",
          "name": "",
          "type": "tuple[]"
        }
      ],
      "stateMutability": "view",
      "type": "function"
    },
    {
      "inputs": [
        {
          "internalType": "string",
          "name": "productId",
          "type": "string"
        }
      ],
      "name": "getVerificationHistory",
      "outputs": [
        {
          "components": [
            {
              "internalType": "address",
              "name": "verifier",
              "type": "address"
            },
            {
              "internalType": "uint256",
              "name": "timestamp",
              "type": "uint256"
            },
            {
              "internalType": "string",
              "name": "location",
              "type": "string"
            },
            {
              "internalType": "bool",
              "name": "result",
              "type": "bool"
            }
          ],
          "internalType": "struct ProductVerification.Verification[]",
          "name": "",
          "type": "tuple[]"
        }
      ],
      "stateMutability": "view",
      "type": "function"
    },
    {
      "inputs": [
        {
          "internalType": "address",
          "name": "owner",
          "type": "address"
        }
      ],
      "name": "getProductsOwned",
      "outputs": [
        {
          "internalType": "string[]",
          "name": "",
          "type": "string[]"
        }
      ],
      "stateMutability": "view",
      "type": "function"
    },
    {
      "inputs": [
        {
          "internalType": "address",
          "name": "manufacturer",
          "type": "address"
        }
      ],
      "name": "getProductsManufactured",
      "outputs": [
        {
          "internalType": "string[]",
          "name": "",
          "type": "string[]"
        }
      ],
      "stateMutability": "view",
      "type": "function"
    },
    {
      "inputs": [
        {
          "internalType": "bytes32",
          "name": "role",
          "type": "bytes32"
        },
        {
          "internalType": "address",
          "name": "account",
          "type": "address"
        }
      ],
      "name": "hasSpecificRole",
      "outputs": [
        {
          "internalType": "bool",
          "name": "",
          "type": "bool"
        }
      ],
      "stateMutability": "view",
      "type": "function"
    }
  ],
  "bytecode": "0x60806040523480156200001157600080fd5b50600180556200002360003362000081565b6200004f7fa49807205ce4d355092ef5a8a18f56e8913cf4a201fbe287825b095693c217753362000081565b6200007b7feefb95e842a3287179d933b4460be539a1d5af11aa8b325bb45c5c8dc92de4ed3362000081565b62000131565b6200008d828262000091565b5050565b6000828152602081815260408083206001600160a01b038516845290915290205460ff166200008d576000828152602081815260408083206001600160a01b03851684529091529020805460ff19166001179055620000ed3390565b6001600160a01b0316816001600160a01b0316837f2f8788117e7eff1d82e926ec794901d17c78024a50270940304540a733656f0d60405160405180910390a45050565b6126fe80620001416000396000f3fe608060405234801561001057600080fd5b50600436106101375760003560e01c80637092b279116100b857806391d148541161007c57806391d14854146102d1578063965288b0146102e4578063a217fddf146102f9578063d547741f14610301578063d96d97a514610314578063dbe4613d1461033457600080fd5b80637092b2791461024457806375b238fc146102645780637b2cca7c1461028b5780637ddfbd6c146102ab5780638799d6fc146102be57600080fd5b806336568abe116100ff57806336568abe146101e55780633f2965f0146101f85780634bcba93e1461020b57806351cb74ac1461021e57806361c9bdef1461023157600080fd5b806301ffc9a71461013c578063198c59b014610164578063248a9ca31461018c5780632f2ff15d146101bd57806335764552146101d2575b600080fd5b61014f61014a366004611c0a565b610349565b60405190151581526020015b60405180910390f35b610177610172366004611cd7565b610380565b60405161015b99989796959493929190611d72565b6101af61019a366004611e24565b60009081526020819052604090206001015490565b60405190815260200161015b565b6101d06101cb366004611e54565b610725565b005b61014f6101e0366004611e80565b61074f565b6101d06101f3366004611e54565b610aa9565b61014f610206366004611ef4565b610b27565b61014f610219366004611e54565b610c6a565b61014f61022c366004611f0f565b610c76565b61014f61023f366004611f73565b610de5565b610257610252366004611ef4565b610f5b565b60405161015b9190612020565b6101af7fa49807205ce4d355092ef5a8a18f56e8913cf4a201fbe287825b095693c2177581565b61029e610299366004611cd7565b61104a565b60405161015b9190612082565b6102576102b9366004611ef4565b6111d5565b61014f6102cc366004611f73565b6112b9565b61014f6102df366004611e54565b611597565b6101af60008051602061268983398151915281565b6101af600081565b6101d061030f366004611e54565b6115c0565b610327610322366004611cd7565b6115e5565b60405161015b9190612119565b6101af6000805160206126a983398151915281565b60006001600160e01b03198216637965db0b60e01b148061037a57506301ffc9a760e01b6001600160e01b03198316145b92915050565b6060600080600060608060606000808960006002826040516103a291906121a4565b90815260405190819003602001902080546103bc906121c0565b9050116103e45760405162461bcd60e51b81526004016103db906121f4565b60405180910390fd5b600060028c6040516103f691906121a4565b908152602001604051809103902060405180610120016040529081600082018054610420906121c0565b80601f016020809104026020016040519081016040528092919081815260200182805461044c906121c0565b80156104995780601f1061046e57610100808354040283529160200191610499565b820191906000526020600020905b81548152906001019060200180831161047c57829003601f168201915b505050918352505060018201546001600160a01b0390811660208301526002830154166040820152600382015460608201526004820180546080909201916104e0906121c0565b80601f016020809104026020016040519081016040528092919081815260200182805461050c906121c0565b80156105595780601f1061052e57610100808354040283529160200191610559565b820191906000526020600020905b81548152906001019060200180831161053c57829003601f168201915b50505050508152602001600582018054610572906121c0565b80601f016020809104026020016040519081016040528092919081815260200182805461059e906121c0565b80156105eb5780601f106105c0576101008083540402835291602001916105eb565b820191906000526020600020905b8154815290600101906020018083116105ce57829003601f168201915b50505050508152602001600682018054610604906121c0565b80601f0160208091040260200160405190810160405280929190818152602001828054610630906121c0565b801561067d5780601f106106525761010080835404028352916020019161067d565b820191906000526020600020905b81548152906001019060200180831161066057829003601f168201915b5050509183525050600782015460209091019060ff1660048111156106a4576106a4611d5c565b60048111156106b5576106b5611d5c565b81526020016007820160019054906101000a900460ff1615151515815250509050806000015181602001518260400151836060015184608001518560a001518660c001518760e001518861010001519a509a509a509a509a509a509a509a509a5050509193959799909294969850565b60008281526020819052604090206001015461074081611767565b61074a8383611774565b505050565b60006107596117f8565b83600060028260405161076c91906121a4565b9081526040519081900360200190208054610786906121c0565b9050116107a55760405162461bcd60e51b81526004016103db906121f4565b84336001600160a01b03166002826040516107c091906121a4565b908152604051908190036020019020600201546001600160a01b0316146108295760405162461bcd60e51b815260206004820152601f60248201527f43616c6c6572206973206e6f74207468652070726f64756374206f776e65720060448201526064016103db565b600060028760405161083b91906121a4565b9081526040519081900360200181206002908101546001600160a01b031692508791610868908a906121a4565b90815260405190819003602001902060020180546001600160a01b03929092166001600160a01b03199092169190911790556108b26000805160206126a983398151915287611597565b156108fe57600280886040516108c891906121a4565b908152604051908190036020019020600701805460ff191660018360048111156108f4576108f4611d5c565b0217905550610970565b61091660008051602061268983398151915287611597565b61092c5760036002886040516108c891906121a4565b600160028860405161093e91906121a4565b908152604051908190036020019020600701805460ff1916600183600481111561096a5761096a611d5c565b02179055505b60038760405161098091906121a4565b9081526040805191829003602090810183206080840183526001600160a01b0380861685528a811685840190815242948601948552606086018b8152835460018181018655600095865295909420875160049095020180549484166001600160a01b03199586161781559151948201805495909316949093169390931790559151600282015590516003820190610a179082612272565b505050610a248188611851565b6001600160a01b038616600090815260086020908152604082208054600181018255908352912001610a568882612272565b507f6840904f5b31827f74e1497360da245f56e530c8c3de3163a2d31f11493273c6878288604051610a8a93929190612332565b60405180910390a160019350505050610aa260018055565b9392505050565b6001600160a01b0381163314610b195760405162461bcd60e51b815260206004820152602f60248201527f416363657373436f6e74726f6c3a2063616e206f6e6c792072656e6f756e636560448201526e103937b632b9903337b91039b2b63360891b60648201526084016103db565b610b238282611950565b5050565b6000610b4160008051602061268983398151915233611597565b610b8d5760405162461bcd60e51b815260206004820152601c60248201527f43616c6c6572206973206e6f742061206d616e7566616374757265720000000060448201526064016103db565b610ba56000805160206126a983398151915283611597565b15610bf25760405162461bcd60e51b815260206004820152601b60248201527f4164647265737320697320616c726561647920612073656c6c6572000000000060448201526064016103db565b610c0a6000805160206126a983398151915283610725565b6001600160a01b038216600081815260066020908152604091829020805460ff1916600117905590519182527f4d97d287a8f631378031b05cb24c876085261ddaa7b8f584477370ef473fbb3d910160405180910390a15060015b919050565b6000610aa28383611597565b6000826000600282604051610c8b91906121a4565b9081526040519081900360200190208054610ca5906121c0565b905011610cc45760405162461bcd60e51b81526004016103db906121f4565b6000600285604051610cd691906121a4565b9081526040519081900360200181206007015460ff610100909104169150600490610d029087906121a4565b9081526040805160209281900383018120608082018352338252428483019081529282018881528515156060840152815460018082018455600093845295909220835160049093020180546001600160a01b0319166001600160a01b0390931692909217825592519381019390935590519091906002820190610d859082612272565b50606091909101516003909101805460ff19169115159190911790556040517f47e557704d2cdab91003b2528a15c97d004949b2f2e4f2b8ba768f2cbe807fa190610dd590879033908590612365565b60405180910390a1949350505050565b6000846000600282604051610dfa91906121a4565b9081526040519081900360200190208054610e14906121c0565b905011610e335760405162461bcd60e51b81526004016103db906121f4565b600586604051610e4391906121a4565b908152604080516020928190038301812060c082018352338252428483019081529282018981526060830189905260808301889052600060a08401819052825460018082018555938252959020835160069096020180546001600160a01b0319166001600160a01b0390961695909517855592519084015590519091906002820190610ecf9082612272565b5060608201516003820190610ee49082612272565b5060808201516004820190610ef99082612272565b5060a091909101516005909101805460ff19169115159190911790556040517f332143078cba66677c9544dfbc4d4c76d3fde7693522eecc6fec53419b3c8e3590610f479088903390612398565b60405180910390a150600195945050505050565b6001600160a01b0381166000908152600860209081526040808320805482518185028101850190935280835260609492939192909184015b8282101561103f578382906000526020600020018054610fb2906121c0565b80601f0160208091040260200160405190810160405280929190818152602001828054610fde906121c0565b801561102b5780601f106110005761010080835404028352916020019161102b565b820191906000526020600020905b81548152906001019060200180831161100e57829003601f168201915b505050505081526020019060010190610f93565b505050509050919050565b606081600060028260405161105f91906121a4565b9081526040519081900360200190208054611079906121c0565b9050116110985760405162461bcd60e51b81526004016103db906121f4565b6003836040516110a891906121a4565b9081526020016040518091039020805480602002602001604051908101604052809291908181526020016000905b828210156111c8576000848152602090819020604080516080810182526004860290920180546001600160a01b03908116845260018201541693830193909352600283015490820152600382018054919291606084019190611137906121c0565b80601f0160208091040260200160405190810160405280929190818152602001828054611163906121c0565b80156111b05780601f10611185576101008083540402835291602001916111b0565b820191906000526020600020905b81548152906001019060200180831161119357829003601f168201915b505050505081525050815260200190600101906110d6565b5050505091505b50919050565b6001600160a01b0381166000908152600760209081526040808320805482518185028101850190935280835260609492939192909184015b8282101561103f57838290600052602060002001805461122c906121c0565b80601f0160208091040260200160405190810160405280929190818152602001828054611258906121c0565b80156112a55780601f1061127a576101008083540402835291602001916112a5565b820191906000526020600020905b81548152906001019060200180831161128857829003601f168201915b50505050508152602001906001019061120d565b60006112d360008051602061268983398151915233611597565b61131f5760405162461bcd60e51b815260206004820152601c60248201527f43616c6c6572206973206e6f742061206d616e7566616374757265720000000060448201526064016103db565b6113276117f8565b60028560405161133791906121a4565b9081526040519081900360200190208054611351906121c0565b1590506113995760405162461bcd60e51b815260206004820152601660248201527550726f6475637420616c72656164792065786973747360501b60448201526064016103db565b604051806101200160405280868152602001336001600160a01b03168152602001336001600160a01b03168152602001428152602001858152602001848152602001838152602001600060048111156113f4576113f4611d5c565b8152600160209091015260405160029061140f9088906121a4565b9081526040519081900360200190208151819061142c9082612272565b5060208201516001820180546001600160a01b039283166001600160a01b031991821617909155604084015160028401805491909316911617905560608201516003820155608082015160048201906114859082612272565b5060a0820151600582019061149a9082612272565b5060c082015160068201906114af9082612272565b5060e082015160078201805460ff191660018360048111156114d3576114d3611d5c565b0217905550610100918201516007918201805461ff0019169115159093021790915533600090815260209182526040812080546001810182559082529190200161151d8682612272565b50336000908152600860209081526040822080546001810182559083529120016115478682612272565b507f93e851db22c8431d137e3294af8a23c2a039674fd2efada79569472f18c4fba385338660405161157b939291906123c2565b60405180910390a150600161158f60018055565b949350505050565b6000918252602082815260408084206001600160a01b0393909316845291905290205460ff1690565b6000828152602081905260409020600101546115db81611767565b61074a8383611950565b60608160006002826040516115fa91906121a4565b9081526040519081900360200190208054611614906121c0565b9050116116335760405162461bcd60e51b81526004016103db906121f4565b60048360405161164391906121a4565b9081526020016040518091039020805480602002602001604051908101604052809291908181526020016000905b828210156111c8576000848152602090819020604080516080810182526004860290920180546001600160a01b03168352600181015493830193909352600283018054929392918401916116c4906121c0565b80601f01602080910402602001604051908101604052809291908181526020018280546116f0906121c0565b801561173d5780601f106117125761010080835404028352916020019161173d565b820191906000526020600020905b81548152906001019060200180831161172057829003601f168201915b50505091835250506003919091015460ff1615156020918201529082526001929092019101611671565b61177181336119b5565b50565b61177e8282611597565b610b23576000828152602081815260408083206001600160a01b03851684529091529020805460ff191660011790556117b43390565b6001600160a01b0316816001600160a01b0316837f2f8788117e7eff1d82e926ec794901d17c78024a50270940304540a733656f0d60405160405180910390a45050565b60026001540361184a5760405162461bcd60e51b815260206004820152601f60248201527f5265656e7472616e637947756172643a207265656e7472616e742063616c6c0060448201526064016103db565b6002600155565b6001600160a01b0382166000908152600860205260408120905b815481101561194a57828051906020012082828154811061188e5761188e612400565b906000526020600020016040516118a59190612416565b60405180910390200361193857815482906118c2906001906124a2565b815481106118d2576118d2612400565b906000526020600020018282815481106118ee576118ee612400565b90600052602060002001908161190491906124b5565b508180548061191557611915612590565b6001900381819060005260206000200160006119319190611bbc565b905561194a565b80611942816125a6565b91505061186b565b50505050565b61195a8282611597565b15610b23576000828152602081815260408083206001600160a01b0385168085529252808320805460ff1916905551339285917ff6391f5c32d9c69d2a47ea670b442974b53935d1edc7fd64eb21e047a839171b9190a45050565b6119bf8282611597565b610b23576119cc81611a0e565b6119d7836020611a20565b6040516020016119e89291906125bf565b60408051601f198184030181529082905262461bcd60e51b82526103db91600401612634565b606061037a6001600160a01b03831660145b60606000611a2f836002612647565b611a3a90600261265e565b67ffffffffffffffff811115611a5257611a52611c34565b6040519080825280601f01601f191660200182016040528015611a7c576020820181803683370190505b509050600360fc1b81600081518110611a9757611a97612400565b60200101906001600160f81b031916908160001a905350600f60fb1b81600181518110611ac657611ac6612400565b60200101906001600160f81b031916908160001a9053506000611aea846002612647565b611af590600161265e565b90505b6001811115611b6d576f181899199a1a9b1b9c1cb0b131b232b360811b85600f1660108110611b2957611b29612400565b1a60f81b828281518110611b3f57611b3f612400565b60200101906001600160f81b031916908160001a90535060049490941c93611b6681612671565b9050611af8565b508315610aa25760405162461bcd60e51b815260206004820181905260248201527f537472696e67733a20686578206c656e67746820696e73756666696369656e7460448201526064016103db565b508054611bc8906121c0565b6000825580601f10611bd8575050565b601f01602090049060005260206000209081019061177191905b80821115611c065760008155600101611bf2565b5090565b600060208284031215611c1c57600080fd5b81356001600160e01b031981168114610aa257600080fd5b634e487b7160e01b600052604160045260246000fd5b600082601f830112611c5b57600080fd5b813567ffffffffffffffff80821115611c7657611c76611c34565b604051601f8301601f19908116603f01168101908282118183101715611c9e57611c9e611c34565b81604052838152866020858801011115611cb757600080fd5b836020870160208301376000602085830101528094505050505092915050565b600060208284031215611ce957600080fd5b813567ffffffffffffffff811115611d0057600080fd5b61158f84828501611c4a565b60005b83811015611d27578181015183820152602001611d0f565b50506000910152565b60008151808452611d48816020860160208601611d0c565b601f01601f19169290920160200192915050565b634e487b7160e01b600052602160045260246000fd5b6000610120808352611d868184018d611d30565b6001600160a01b038c811660208601528b166040850152606084018a905283810360808501529050611db88189611d30565b905082810360a0840152611dcc8188611d30565b905082810360c0840152611de08187611d30565b91505060058410611e0157634e487b7160e01b600052602160045260246000fd5b8360e0830152611e1661010083018415159052565b9a9950505050505050505050565b600060208284031215611e3657600080fd5b5035919050565b80356001600160a01b0381168114610c6557600080fd5b60008060408385031215611e6757600080fd5b82359150611e7760208401611e3d565b90509250929050565b600080600060608486031215611e9557600080fd5b833567ffffffffffffffff80821115611ead57600080fd5b611eb987838801611c4a565b9450611ec760208701611e3d565b93506040860135915080821115611edd57600080fd5b50611eea86828701611c4a565b9150509250925092565b600060208284031215611f0657600080fd5b610aa282611e3d565b60008060408385031215611f2257600080fd5b823567ffffffffffffffff80821115611f3a57600080fd5b611f4686838701611c4a565b93506020850135915080821115611f5c57600080fd5b50611f6985828601611c4a565b9150509250929050565b60008060008060808587031215611f8957600080fd5b843567ffffffffffffffff80821115611fa157600080fd5b611fad88838901611c4a565b95506020870135915080821115611fc357600080fd5b611fcf88838901611c4a565b94506040870135915080821115611fe557600080fd5b611ff188838901611c4a565b9350606087013591508082111561200757600080fd5b5061201487828801611c4a565b91505092959194509250565b6000602080830181845280855180835260408601915060408160051b870101925083870160005b8281101561207557603f19888603018452612063858351611d30565b94509285019290850190600101612047565b5092979650505050505050565b60006020808301818452808551808352604092508286019150828160051b87010184880160005b8381101561210b57888303603f19018552815180516001600160a01b03908116855288820151168885015286810151878501526060908101516080918501829052906120f781860183611d30565b9689019694505050908601906001016120a9565b509098975050505050505050565b60006020808301818452808551808352604092508286019150828160051b87010184880160005b8381101561210b57888303603f19018552815180516001600160a01b0316845287810151888501528681015160808886018190529061218182870182611d30565b606093840151151596909301959095525094870194925090860190600101612140565b600082516121b6818460208701611d0c565b9190910192915050565b600181811c908216806121d457607f821691505b6020821081036111cf57634e487b7160e01b600052602260045260246000fd5b602080825260169082015275141c9bd91d58dd08191bd95cc81b9bdd08195e1a5cdd60521b604082015260600190565b601f82111561074a57600081815260208120601f850160051c8101602086101561224b5750805b601f850160051c820191505b8181101561226a57828155600101612257565b505050505050565b815167ffffffffffffffff81111561228c5761228c611c34565b6122a08161229a84546121c0565b84612224565b602080601f8311600181146122d557600084156122bd5750858301515b600019600386901b1c1916600185901b17855561226a565b600085815260208120601f198616915b82811015612304578886015182559484019460019091019084016122e5565b50858210156123225787850151600019600388901b60f8161c191681555b5050505050600190811b01905550565b6060815260006123456060830186611d30565b6001600160a01b0394851660208401529290931660409091015292915050565b6060815260006123786060830186611d30565b6001600160a01b0394909416602083015250901515604090910152919050565b6040815260006123ab6040830185611d30565b905060018060a01b03831660208301529392505050565b6060815260006123d56060830186611d30565b6001600160a01b038516602084015282810360408401526123f68185611d30565b9695505050505050565b634e487b7160e01b600052603260045260246000fd5b6000808354612424816121c0565b6001828116801561243c576001811461245157612480565b60ff1984168752821515830287019450612480565b8760005260208060002060005b858110156124775781548a82015290840190820161245e565b50505082870194505b50929695505050505050565b634e487b7160e01b600052601160045260246000fd5b8181038181111561037a5761037a61248c565b8181036124c0575050565b6124ca82546121c0565b67ffffffffffffffff8111156124e2576124e2611c34565b6124f08161229a84546121c0565b6000601f821160018114612524576000831561250c5750848201545b600019600385901b1c1916600184901b178455612589565b600085815260209020601f19841690600086815260209020845b8381101561255e578286015482556001958601959091019060200161253e565b508583101561257c5781850154600019600388901b60f8161c191681555b50505060018360011b0184555b5050505050565b634e487b7160e01b600052603160045260246000fd5b6000600182016125b8576125b861248c565b5060010190565b7f416363657373436f6e74726f6c3a206163636f756e74200000000000000000008152600083516125f7816017850160208801611d0c565b7001034b99036b4b9b9b4b733903937b6329607d1b6017918401918201528351612628816028840160208801611d0c565b01602801949350505050565b602081526000610aa26020830184611d30565b808202811582820484141761037a5761037a61248c565b8082018082111561037a5761037a61248c565b6000816126805761268061248c565b50600019019056feeefb95e842a3287179d933b4460be539a1d5af11aa8b325bb45c5c8dc92de4ed43f25613eb2f15fb17222a5d424ca2655743e71265d98e4b93c05e5fb589ecdea2646970667358221220e6a4b7ba45e26344a8f09e61e55baef78bb325729372417a95acae3ecf4f969864736f6c63430008130033",
  "immutableReferences": {},
  "source": "// SPDX-License-Identifier: MIT\r\npragma solidity ^0.8.19;\r\n\r\nimport \"@openzeppelin/contracts/access/AccessControl.sol\";\r\nimport \"@openzeppelin/contracts/security/ReentrancyGuard.sol\";\r\nimport \"@openzeppelin/contracts/utils/Counters.sol\";\r\n/**\r\n * @title ProductVerification\r\n * @dev Contract for verifying authentic products and tracking ownership\r\n */\r\ncontract ProductVerification is AccessControl, ReentrancyGuard {\r\n    using Counters for Counters.Counter;\r\n\r\n    // Roles\r\n    bytes32 public constant ADMIN_ROLE = keccak256(\"ADMIN_ROLE\");\r\n    bytes32 public constant MANUFACTURER_ROLE = keccak256(\"MANUFACTURER_ROLE\");\r\n    bytes32 public constant SELLER_ROLE = keccak256(\"SELLER_ROLE\");\r\n\r\n    // Product status\r\n    enum ProductStatus {\r\n        Created,\r\n        InTransit,\r\n        WithSeller,\r\n        Sold,\r\n        Reported\r\n    }\r\n\r\n    // Product struct\r\n    struct Product {\r\n        string productId; // Unique identifier for the product\r\n        address manufacturer; // Address of the manufacturer\r\n        address currentOwner; // Current owner of the product\r\n        uint256 manufactureDate; // Date of manufacture (timestamp)\r\n        string manufacturerName; // Name of the manufacturer\r\n        string productDetails; // IPFS hash of product details (specs, etc.)\r\n        string manufacturingLocation; // Location where the product was made\r\n        ProductStatus status; // Current status of the product\r\n        bool isAuthentic; // Flag to determine if product is authentic\r\n    }\r\n\r\n    // Transfer struct\r\n    struct Transfer {\r\n        address from;\r\n        address to;\r\n        uint256 timestamp;\r\n        string transferConditions; // Optional data about transfer conditions\r\n    }\r\n\r\n    // Verification struct\r\n    struct Verification {\r\n        address verifier;\r\n        uint256 timestamp;\r\n        string location;\r\n        bool result;\r\n    }\r\n\r\n    // Counterfeit report struct\r\n    struct CounterfeitReport {\r\n        address reporter;\r\n        uint256 timestamp;\r\n        string evidenceHash; // IPFS hash of photographic evidence\r\n        string description; // Description of authenticity concerns\r\n        string location; // Location where counterfeit was found\r\n        bool resolved; // Flag to track resolution status\r\n    }\r\n\r\n    // Mappings\r\n    mapping(string => Product) private products;\r\n    mapping(string => Transfer[]) private transferHistory;\r\n    mapping(string => Verification[]) private verificationHistory;\r\n    mapping(string => CounterfeitReport[]) private counterfeitReports;\r\n    mapping(address => bool) private authorizedSellers;\r\n    mapping(address => string[]) private productsManufactured;\r\n    mapping(address => string[]) private productsOwned;\r\n\r\n    // Events\r\n    event ProductRegistered(\r\n        string productId,\r\n        address manufacturer,\r\n        string manufacturerName\r\n    );\r\n    event ProductVerified(string productId, address verifier, bool authentic);\r\n    event OwnershipTransferred(string productId, address from, address to);\r\n    event CounterfeitReported(string productId, address reporter);\r\n    event SellerRegistered(address seller);\r\n\r\n    // Constructor\r\n    constructor() {\r\n        _setupRole(DEFAULT_ADMIN_ROLE, msg.sender);\r\n        _setupRole(ADMIN_ROLE, msg.sender);\r\n        _setupRole(MANUFACTURER_ROLE, msg.sender);\r\n    }\r\n\r\n    // Modifiers\r\n    modifier onlyManufacturer() {\r\n        require(\r\n            hasRole(MANUFACTURER_ROLE, msg.sender),\r\n            \"Caller is not a manufacturer\"\r\n        );\r\n        _;\r\n    }\r\n\r\n    modifier onlySellerOrManufacturer() {\r\n        require(\r\n            hasRole(SELLER_ROLE, msg.sender) ||\r\n                hasRole(MANUFACTURER_ROLE, msg.sender),\r\n            \"Caller is not a seller or manufacturer\"\r\n        );\r\n        _;\r\n    }\r\n\r\n    modifier productExists(string memory productId) {\r\n        require(\r\n            bytes(products[productId].productId).length > 0,\r\n            \"Product does not exist\"\r\n        );\r\n        _;\r\n    }\r\n\r\n    modifier isProductOwner(string memory productId) {\r\n        require(\r\n            products[productId].currentOwner == msg.sender,\r\n            \"Caller is not the product owner\"\r\n        );\r\n        _;\r\n    }\r\n\r\n    // Functions\r\n    /**\r\n     * @dev Register a new product\r\n     */\r\n    function registerProduct(\r\n        string memory productId,\r\n        string memory manufacturerName,\r\n        string memory productDetails,\r\n        string memory manufacturingLocation\r\n    ) public onlyManufacturer nonReentrant returns (bool) {\r\n        require(\r\n            bytes(products[productId].productId).length == 0,\r\n            \"Product already exists\"\r\n        );\r\n\r\n        products[productId] = Product({\r\n            productId: productId,\r\n            manufacturer: msg.sender,\r\n            currentOwner: msg.sender,\r\n            manufactureDate: block.timestamp,\r\n            manufacturerName: manufacturerName,\r\n            productDetails: productDetails,\r\n            manufacturingLocation: manufacturingLocation,\r\n            status: ProductStatus.Created,\r\n            isAuthentic: true\r\n        });\r\n\r\n        productsManufactured[msg.sender].push(productId);\r\n        productsOwned[msg.sender].push(productId);\r\n\r\n        emit ProductRegistered(productId, msg.sender, manufacturerName);\r\n        return true;\r\n    }\r\n\r\n    /**\r\n     * @dev Register a new seller\r\n     */\r\n    function registerSeller(\r\n        address seller\r\n    ) public onlyManufacturer returns (bool) {\r\n        require(!hasRole(SELLER_ROLE, seller), \"Address is already a seller\");\r\n\r\n        grantRole(SELLER_ROLE, seller);\r\n        authorizedSellers[seller] = true;\r\n\r\n        emit SellerRegistered(seller);\r\n        return true;\r\n    }\r\n\r\n    /**\r\n     * @dev Transfer product ownership\r\n     */\r\n    function transferOwnership(\r\n        string memory productId,\r\n        address newOwner,\r\n        string memory transferConditions\r\n    )\r\n        public\r\n        nonReentrant\r\n        productExists(productId)\r\n        isProductOwner(productId)\r\n        returns (bool)\r\n    {\r\n        address currentOwner = products[productId].currentOwner;\r\n\r\n        // Update product owner\r\n        products[productId].currentOwner = newOwner;\r\n\r\n        // Update status based on recipient\r\n        if (hasRole(SELLER_ROLE, newOwner)) {\r\n            products[productId].status = ProductStatus.WithSeller;\r\n        } else if (!hasRole(MANUFACTURER_ROLE, newOwner)) {\r\n            products[productId].status = ProductStatus.Sold;\r\n        } else {\r\n            products[productId].status = ProductStatus.InTransit;\r\n        }\r\n\r\n        // Record transfer in history\r\n        transferHistory[productId].push(\r\n            Transfer({\r\n                from: currentOwner,\r\n                to: newOwner,\r\n                timestamp: block.timestamp,\r\n                transferConditions: transferConditions\r\n            })\r\n        );\r\n\r\n        // Update ownership records\r\n        // Remove from current owner's list\r\n        removeFromOwnedProducts(currentOwner, productId);\r\n\r\n        // Add to new owner's list\r\n        productsOwned[newOwner].push(productId);\r\n\r\n        emit OwnershipTransferred(productId, currentOwner, newOwner);\r\n        return true;\r\n    }\r\n\r\n    /**\r\n     * @dev Verify a product's authenticity\r\n     */\r\n    function verifyProduct(\r\n        string memory productId,\r\n        string memory location\r\n    ) public productExists(productId) returns (bool) {\r\n        bool isAuthentic = products[productId].isAuthentic;\r\n\r\n        verificationHistory[productId].push(\r\n            Verification({\r\n                verifier: msg.sender,\r\n                timestamp: block.timestamp,\r\n                location: location,\r\n                result: isAuthentic\r\n            })\r\n        );\r\n\r\n        emit ProductVerified(productId, msg.sender, isAuthentic);\r\n        return isAuthentic;\r\n    }\r\n\r\n    /**\r\n     * @dev Report a counterfeit product\r\n     */\r\n    function reportCounterfeit(\r\n        string memory productId,\r\n        string memory evidenceHash,\r\n        string memory description,\r\n        string memory location\r\n    ) public productExists(productId) returns (bool) {\r\n        counterfeitReports[productId].push(\r\n            CounterfeitReport({\r\n                reporter: msg.sender,\r\n                timestamp: block.timestamp,\r\n                evidenceHash: evidenceHash,\r\n                description: description,\r\n                location: location,\r\n                resolved: false\r\n            })\r\n        );\r\n\r\n        emit CounterfeitReported(productId, msg.sender);\r\n        return true;\r\n    }\r\n\r\n    /**\r\n     * @dev Get product details\r\n     */\r\n    function getProductDetails(\r\n        string memory productId\r\n    )\r\n        public\r\n        view\r\n        productExists(productId)\r\n        returns (\r\n            string memory, // productId\r\n            address, // manufacturer\r\n            address, // currentOwner\r\n            uint256, // manufactureDate\r\n            string memory, // manufacturerName\r\n            string memory, // productDetails\r\n            string memory, // manufacturingLocation\r\n            ProductStatus, // status\r\n            bool // isAuthentic\r\n        )\r\n    {\r\n        Product memory product = products[productId];\r\n        return (\r\n            product.productId,\r\n            product.manufacturer,\r\n            product.currentOwner,\r\n            product.manufactureDate,\r\n            product.manufacturerName,\r\n            product.productDetails,\r\n            product.manufacturingLocation,\r\n            product.status,\r\n            product.isAuthentic\r\n        );\r\n    }\r\n\r\n    /**\r\n     * @dev Get transfer history for a product\r\n     */\r\n    function getTransferHistory(\r\n        string memory productId\r\n    ) public view productExists(productId) returns (Transfer[] memory) {\r\n        return transferHistory[productId];\r\n    }\r\n\r\n    /**\r\n     * @dev Get verification history for a product\r\n     */\r\n    function getVerificationHistory(\r\n        string memory productId\r\n    ) public view productExists(productId) returns (Verification[] memory) {\r\n        return verificationHistory[productId];\r\n    }\r\n\r\n    /**\r\n     * @dev Get products owned by an address\r\n     */\r\n    function getProductsOwned(\r\n        address owner\r\n    ) public view returns (string[] memory) {\r\n        return productsOwned[owner];\r\n    }\r\n\r\n    /**\r\n     * @dev Get products manufactured by an address\r\n     */\r\n    function getProductsManufactured(\r\n        address manufacturer\r\n    ) public view returns (string[] memory) {\r\n        return productsManufactured[manufacturer];\r\n    }\r\n\r\n    /**\r\n     * @dev Remove a product from the owner's list of owned products\r\n     */\r\n    function removeFromOwnedProducts(\r\n        address owner,\r\n        string memory productId\r\n    ) internal {\r\n        string[] storage owned = productsOwned[owner];\r\n        for (uint i = 0; i < owned.length; i++) {\r\n            if (keccak256(bytes(owned[i])) == keccak256(bytes(productId))) {\r\n                // Move the last element to the current position and pop the last element\r\n                owned[i] = owned[owned.length - 1];\r\n                owned.pop();\r\n                break;\r\n            }\r\n        }\r\n    }\r\n\r\n    /**\r\n     * @dev Check if an address has a specific role\r\n     */\r\n    function hasSpecificRole(\r\n        bytes32 role,\r\n        address account\r\n    ) public view returns (bool) {\r\n        return hasRole(role, account);\r\n    }\r\n}\r\n",
  "sourcePath": "C:\\Users\\Tobij\\DigiSeal\\blockchain\\contracts\\ProductVerification.sol",
  "compiler": {
    "name": "solc",
    "version": "0.8.19+commit.7dd6d404.Emscripten.clang"
  },
  "schemaVersion": "3.4.16",
  "updatedAt": "2025-03-09T16:28:48.553Z",
  "devdoc": {
    "details": "Contract for verifying authentic products and tracking ownership",
    "events": {
      "RoleAdminChanged(bytes32,bytes32,bytes32)": {
        "details": "Emitted when `newAdminRole` is set as ``role``'s admin role, replacing `previousAdminRole` `DEFAULT_ADMIN_ROLE` is the starting admin for all roles, despite {RoleAdminChanged} not being emitted signaling this. _Available since v3.1._"
      },
      "RoleGranted(bytes32,address,address)": {
        "details": "Emitted when `account` is granted `role`. `sender` is the account that originated the contract call, an admin role bearer except when using {AccessControl-_setupRole}."
      },
      "RoleRevoked(bytes32,address,address)": {
        "details": "Emitted when `account` is revoked `role`. `sender` is the account that originated the contract call:   - if using `revokeRole`, it is the admin role bearer   - if using `renounceRole`, it is the role bearer (i.e. `account`)"
      }
    },
    "kind": "dev",
    "methods": {
      "getProductDetails(string)": {
        "details": "Get product details"
      },
      "getProductsManufactured(address)": {
        "details": "Get products manufactured by an address"
      },
      "getProductsOwned(address)": {
        "details": "Get products owned by an address"
      },
      "getRoleAdmin(bytes32)": {
        "details": "Returns the admin role that controls `role`. See {grantRole} and {revokeRole}. To change a role's admin, use {_setRoleAdmin}."
      },
      "getTransferHistory(string)": {
        "details": "Get transfer history for a product"
      },
      "getVerificationHistory(string)": {
        "details": "Get verification history for a product"
      },
      "grantRole(bytes32,address)": {
        "details": "Grants `role` to `account`. If `account` had not been already granted `role`, emits a {RoleGranted} event. Requirements: - the caller must have ``role``'s admin role. May emit a {RoleGranted} event."
      },
      "hasRole(bytes32,address)": {
        "details": "Returns `true` if `account` has been granted `role`."
      },
      "hasSpecificRole(bytes32,address)": {
        "details": "Check if an address has a specific role"
      },
      "registerProduct(string,string,string,string)": {
        "details": "Register a new product"
      },
      "registerSeller(address)": {
        "details": "Register a new seller"
      },
      "renounceRole(bytes32,address)": {
        "details": "Revokes `role` from the calling account. Roles are often managed via {grantRole} and {revokeRole}: this function's purpose is to provide a mechanism for accounts to lose their privileges if they are compromised (such as when a trusted device is misplaced). If the calling account had been revoked `role`, emits a {RoleRevoked} event. Requirements: - the caller must be `account`. May emit a {RoleRevoked} event."
      },
      "reportCounterfeit(string,string,string,string)": {
        "details": "Report a counterfeit product"
      },
      "revokeRole(bytes32,address)": {
        "details": "Revokes `role` from `account`. If `account` had been granted `role`, emits a {RoleRevoked} event. Requirements: - the caller must have ``role``'s admin role. May emit a {RoleRevoked} event."
      },
      "supportsInterface(bytes4)": {
        "details": "See {IERC165-supportsInterface}."
      },
      "transferOwnership(string,address,string)": {
        "details": "Transfer product ownership"
      },
      "verifyProduct(string,string)": {
        "details": "Verify a product's authenticity"
      }
    },
    "title": "ProductVerification",
    "version": 1
  },
  "userdoc": {
    "kind": "user",
    "methods": {},
    "version": 1
  }
}